{
  "_format": "hh3-artifact-1",
  "contractName": "NFTMarketPlace",
  "sourceName": "contracts/NFTMarketPlace.sol",
  "abi": [
    {
      "inputs": [],
      "stateMutability": "nonpayable",
      "type": "constructor"
    },
    {
      "inputs": [],
      "name": "ReentrancyGuardReentrantCall",
      "type": "error"
    },
    {
      "anonymous": false,
      "inputs": [
        {
          "indexed": true,
          "internalType": "uint256",
          "name": "orderId",
          "type": "uint256"
        },
        {
          "indexed": true,
          "internalType": "uint256",
          "name": "timestamp",
          "type": "uint256"
        }
      ],
      "name": "OrderCancelled",
      "type": "event"
    },
    {
      "anonymous": false,
      "inputs": [
        {
          "indexed": true,
          "internalType": "uint256",
          "name": "orderId",
          "type": "uint256"
        },
        {
          "indexed": true,
          "internalType": "address",
          "name": "seller",
          "type": "address"
        },
        {
          "indexed": false,
          "internalType": "address",
          "name": "nftContract",
          "type": "address"
        },
        {
          "indexed": true,
          "internalType": "uint256",
          "name": "tokenId",
          "type": "uint256"
        },
        {
          "indexed": false,
          "internalType": "uint256",
          "name": "price",
          "type": "uint256"
        },
        {
          "indexed": false,
          "internalType": "address",
          "name": "paymentToken",
          "type": "address"
        },
        {
          "indexed": false,
          "internalType": "bool",
          "name": "isActive",
          "type": "bool"
        },
        {
          "indexed": false,
          "internalType": "bool",
          "name": "isEscrowed",
          "type": "bool"
        }
      ],
      "name": "OrderCreated",
      "type": "event"
    },
    {
      "anonymous": false,
      "inputs": [
        {
          "indexed": true,
          "internalType": "uint256",
          "name": "orderId",
          "type": "uint256"
        },
        {
          "indexed": true,
          "internalType": "address",
          "name": "buyer",
          "type": "address"
        },
        {
          "indexed": false,
          "internalType": "uint256",
          "name": "timestamp",
          "type": "uint256"
        }
      ],
      "name": "OrderExecuted",
      "type": "event"
    },
    {
      "inputs": [],
      "name": "admin",
      "outputs": [
        {
          "internalType": "address",
          "name": "",
          "type": "address"
        }
      ],
      "stateMutability": "view",
      "type": "function"
    },
    {
      "inputs": [
        {
          "internalType": "uint256",
          "name": "_orderId",
          "type": "uint256"
        }
      ],
      "name": "buyNFT",
      "outputs": [],
      "stateMutability": "payable",
      "type": "function"
    },
    {
      "inputs": [
        {
          "internalType": "uint256",
          "name": "_orderId",
          "type": "uint256"
        }
      ],
      "name": "cancelOrder",
      "outputs": [],
      "stateMutability": "nonpayable",
      "type": "function"
    },
    {
      "inputs": [
        {
          "internalType": "address",
          "name": "nftContract",
          "type": "address"
        },
        {
          "internalType": "uint256",
          "name": "tokenId",
          "type": "uint256"
        },
        {
          "internalType": "uint256",
          "name": "price",
          "type": "uint256"
        },
        {
          "internalType": "address",
          "name": "paymentToken",
          "type": "address"
        }
      ],
      "name": "createOrder",
      "outputs": [],
      "stateMutability": "nonpayable",
      "type": "function"
    },
    {
      "inputs": [
        {
          "internalType": "address",
          "name": "nftContract",
          "type": "address"
        },
        {
          "internalType": "uint256",
          "name": "tokenId",
          "type": "uint256"
        },
        {
          "internalType": "uint256",
          "name": "price",
          "type": "uint256"
        },
        {
          "internalType": "address",
          "name": "paymentToken",
          "type": "address"
        }
      ],
      "name": "createOrderWithEscrow",
      "outputs": [],
      "stateMutability": "nonpayable",
      "type": "function"
    },
    {
      "inputs": [],
      "name": "nextOrderId",
      "outputs": [
        {
          "internalType": "uint256",
          "name": "",
          "type": "uint256"
        }
      ],
      "stateMutability": "view",
      "type": "function"
    },
    {
      "inputs": [
        {
          "internalType": "uint256",
          "name": "",
          "type": "uint256"
        }
      ],
      "name": "orders",
      "outputs": [
        {
          "internalType": "uint256",
          "name": "orderId",
          "type": "uint256"
        },
        {
          "internalType": "address",
          "name": "seller",
          "type": "address"
        },
        {
          "internalType": "address",
          "name": "nftContract",
          "type": "address"
        },
        {
          "internalType": "uint256",
          "name": "tokenId",
          "type": "uint256"
        },
        {
          "internalType": "uint256",
          "name": "price",
          "type": "uint256"
        },
        {
          "internalType": "address",
          "name": "paymentToken",
          "type": "address"
        },
        {
          "internalType": "bool",
          "name": "isActive",
          "type": "bool"
        },
        {
          "internalType": "bool",
          "name": "isEscrowed",
          "type": "bool"
        }
      ],
      "stateMutability": "view",
      "type": "function"
    },
    {
      "inputs": [],
      "name": "platformFee",
      "outputs": [
        {
          "internalType": "uint256",
          "name": "",
          "type": "uint256"
        }
      ],
      "stateMutability": "view",
      "type": "function"
    },
    {
      "stateMutability": "payable",
      "type": "receive"
    }
  ],
  "bytecode": "0x608060405260196002553480156013575f5ffd5b5060015f81905580546001600160a01b0319163317905561135f806100375f395ff3fe60806040526004361061007c575f3560e01c8063a85c38ef1161004c578063a85c38ef146100f8578063ba84033c146101bf578063e338bf60146101de578063f851a440146101fd575f5ffd5b806326232a2e146100875780632a58b330146100af578063514fcac7146100c457806351ed8288146100e5575f5ffd5b3661008357005b5f5ffd5b348015610092575f5ffd5b5061009c60025481565b6040519081526020015b60405180910390f35b3480156100ba575f5ffd5b5061009c60045481565b3480156100cf575f5ffd5b506100e36100de3660046111c0565b610234565b005b6100e36100f33660046111c0565b6103c3565b348015610103575f5ffd5b5061016e6101123660046111c0565b600360208190525f918252604090912080546001820154600283015493830154600484015460059094015492946001600160a01b039283169490831693919290919081169060ff600160a01b8204811691600160a81b90041688565b604080519889526001600160a01b0397881660208a0152958716958801959095526060870193909352608086019190915290921660a084015290151560c0830152151560e0820152610100016100a6565b3480156101ca575f5ffd5b506100e36101d93660046111eb565b6109f7565b3480156101e9575f5ffd5b506100e36101f83660046111eb565b610da6565b348015610208575f5ffd5b5060015461021c906001600160a01b031681565b6040516001600160a01b0390911681526020016100a6565b61023c611198565b5f8181526003602052604090206005810154600160a01b900460ff166102a45760405162461bcd60e51b81526020600482015260186024820152771d15d45cb1b2bcd2f41cd2b11cd112dcb6f65cb1f2dcd6d160431b60448201526064015b60405180910390fd5b60018101546001600160a01b031633146102f55760405162461bcd60e51b8152602060048201526012602482015271e697a0e69d83e58f96e6b688e8aea2e58d9560701b604482015260640161029b565b6005810154600160a81b900460ff1615610378576002810154600182015460038301546040516323b872dd60e01b81526001600160a01b03938416936323b872dd9361034a9330939290911691600401611232565b5f604051808303815f87803b158015610361575f5ffd5b505af1158015610373573d5f5f3e3d5ffd5b505050505b60058101805460ff60a01b191690556040514290819084907faa2a006d186dc89a3d6851834c85d16226329ac40bcad6531a5756a38ed1c90f905f90a350506103c060015f55565b50565b6103cb611198565b5f8181526003602052604090206005810154600160a01b900460ff1661042e5760405162461bcd60e51b81526020600482015260186024820152771d15d45cb1b2bcd2f41cd2b11cd112dcb6f65cb1f2dcd6d160431b604482015260640161029b565b60018101546001600160a01b0316330361048a5760405162461bcd60e51b815260206004820152601960248201527fe4b88de883bde8b4ade4b9b0e887aae5b7b1e79a84204e465400000000000000604482015260640161029b565b600181015460028083015460038401546004850154600586015493546001600160a01b03958616959384169492939192909116905f906103e8906104ce908561126a565b6104d89190611287565b90505f6104e582856112a6565b90506001600160a01b03831661068a578334146105445760405162461bcd60e51b815260206004820152601d60248201527fe694afe4bb98e79a842045544820e695b0e9878fe4b88de58cb9e9858d000000604482015260640161029b565b5f876001600160a01b0316826040515f6040518083038185875af1925050503d805f811461058d576040519150601f19603f3d011682016040523d82523d5f602084013e610592565b606091505b50509050806105e35760405162461bcd60e51b815260206004820152601760248201527fe58d96e5aeb62045544820e8bdace8b4a6e5a4b1e8b4a5000000000000000000604482015260640161029b565b6001546040515f916001600160a01b03169085908381818185875af1925050503d805f811461062d576040519150601f19603f3d011682016040523d82523d5f602084013e610632565b606091505b50509050806106835760405162461bcd60e51b815260206004820152601b60248201527fe5b9b3e58fb0e6898be7bbade8b4b9e8bdace8b4a6e5a4b1e8b4a50000000000604482015260640161029b565b50506108c6565b604051636eb1769f60e11b8152336004820152306024820152839085906001600160a01b0383169063dd62ed3e90604401602060405180830381865afa1580156106d6573d5f5f3e3d5ffd5b505050506040513d601f19601f820116820180604052508101906106fa91906112b9565b10156107485760405162461bcd60e51b815260206004820152601e60248201527fe8afb7e58588e68e88e69d83e5b9b3e58fb0e8bdace7a7bbe4bba3e5b8810000604482015260640161029b565b6040516323b872dd60e01b81526001600160a01b038216906323b872dd906107789033908c908790600401611232565b6020604051808303815f875af1158015610794573d5f5f3e3d5ffd5b505050506040513d601f19601f820116820180604052508101906107b891906112d0565b6108045760405162461bcd60e51b815260206004820152601860248201527fe58d96e5aeb6e4bba3e5b881e8bdace8b4a6e5a4b1e8b4a50000000000000000604482015260640161029b565b6001546040516323b872dd60e01b81526001600160a01b03808416926323b872dd9261083892339216908890600401611232565b6020604051808303815f875af1158015610854573d5f5f3e3d5ffd5b505050506040513d601f19601f8201168201806040525081019061087891906112d0565b6108c45760405162461bcd60e51b815260206004820152601b60248201527fe5b9b3e58fb0e6898be7bbade8b4b9e8bdace8b4a6e5a4b1e8b4a50000000000604482015260640161029b565b505b60058801548690600160a81b900460ff161561093e576040516323b872dd60e01b81526001600160a01b038216906323b872dd9061090c90309033908b90600401611232565b5f604051808303815f87803b158015610923575f5ffd5b505af1158015610935573d5f5f3e3d5ffd5b5050505061099c565b6040516323b872dd60e01b81526001600160a01b038216906323b872dd9061096e908b9033908b90600401611232565b5f604051808303815f87803b158015610985575f5ffd5b505af1158015610997573d5f5f3e3d5ffd5b505050505b60058901805460ff60a01b19169055604051428082529033908c907f9b32d7714729bdcd899b9c5460b1ec55a813e10e7a51271f146949e4e19f7b999060200160405180910390a3505050505050505050506103c060015f55565b6109ff611198565b6040516331a9108f60e11b815260048101849052849033906001600160a01b03831690636352211e90602401602060405180830381865afa158015610a46573d5f5f3e3d5ffd5b505050506040513d601f19601f82011682018060405250810190610a6a91906112f6565b6001600160a01b031614610ab75760405162461bcd60e51b8152602060048201526014602482015273e4b88de698af204e465420e68980e69c89e8808560601b604482015260640161029b565b60405163e985e9c560e01b81523360048201523060248201526001600160a01b0382169063e985e9c590604401602060405180830381865afa158015610aff573d5f5f3e3d5ffd5b505050506040513d601f19601f82011682018060405250810190610b2391906112d0565b80610b9d575060405163020604bf60e21b81526004810185905230906001600160a01b0383169063081812fc90602401602060405180830381865afa158015610b6e573d5f5f3e3d5ffd5b505050506040513d601f19601f82011682018060405250810190610b9291906112f6565b6001600160a01b0316145b610be95760405162461bcd60e51b815260206004820152601c60248201527fe8afb7e58588e68e88e69d83e5b9b3e58fb0e8bdace7a7bb204e465400000000604482015260640161029b565b5f8311610c2f5760405162461bcd60e51b81526020600482015260146024820152730e4bbb7e6a0bce5bf85e9a1bbe5a4a7e4ba8e20360641b604482015260640161029b565b600480545f9182610c3f83611311565b9091555060408051610100810182528281523360208083018281526001600160a01b038c8116858701908152606086018d8152608087018d81528c841660a08901908152600160c08a018181525f60e08c018181528e825260039a8b90528d82209c518d5598518c84018054918a166001600160a01b0319928316179055965160028d018054918a1691909816179096559351978a0197909755905160048901555160059097018054915194511515600160a81b0260ff60a81b19951515600160a01b026001600160a81b0319909316989094169790971717929092161790935592519394508893909285927fea9493f80f6e31303e8603861560d91fce596207ae673b08ba5d8649f99eea5e92610d8d928d928c928c9291906001600160a01b03958616815260208101949094529190931660408301529115156060820152901515608082015260a00190565b60405180910390a45050610da060015f55565b50505050565b610dae611198565b6040516331a9108f60e11b815260048101849052849033906001600160a01b03831690636352211e90602401602060405180830381865afa158015610df5573d5f5f3e3d5ffd5b505050506040513d601f19601f82011682018060405250810190610e1991906112f6565b6001600160a01b031614610e665760405162461bcd60e51b8152602060048201526014602482015273e4b88de698af204e465420e68980e69c89e8808560601b604482015260640161029b565b60405163e985e9c560e01b81523360048201523060248201526001600160a01b0382169063e985e9c590604401602060405180830381865afa158015610eae573d5f5f3e3d5ffd5b505050506040513d601f19601f82011682018060405250810190610ed291906112d0565b80610f4c575060405163020604bf60e21b81526004810185905230906001600160a01b0383169063081812fc90602401602060405180830381865afa158015610f1d573d5f5f3e3d5ffd5b505050506040513d601f19601f82011682018060405250810190610f4191906112f6565b6001600160a01b0316145b610f985760405162461bcd60e51b815260206004820152601c60248201527fe8afb7e58588e68e88e69d83e5b9b3e58fb0e8bdace7a7bb204e465400000000604482015260640161029b565b5f8311610fde5760405162461bcd60e51b81526020600482015260146024820152730e4bbb7e6a0bce5bf85e9a1bbe5a4a7e4ba8e20360641b604482015260640161029b565b6040516323b872dd60e01b81526001600160a01b038216906323b872dd9061100e90339030908990600401611232565b5f604051808303815f87803b158015611025575f5ffd5b505af1158015611037573d5f5f3e3d5ffd5b5050600480545f935091508261104c83611311565b9091555060408051610100810182528281523360208083018281526001600160a01b038c8116858701908152606086018d8152608087018d81528c841660a08901908152600160c08a0181815260e08b018281525f8e815260039a8b90528d90209b518c5597518b830180549189166001600160a01b0319928316179055955160028c0180549189169190971617909555925196890196909655516004880155935160059096018054915193511515600160a81b0260ff60a81b19941515600160a01b026001600160a81b031990931697909316969096171791909116179092559151929350879284917fea9493f80f6e31303e8603861560d91fce596207ae673b08ba5d8649f99eea5e91610d8d918c918b918b9181906001600160a01b03958616815260208101949094529190931660408301529115156060820152901515608082015260a00190565b60025f54036111ba57604051633ee5aeb560e01b815260040160405180910390fd5b60025f55565b5f602082840312156111d0575f5ffd5b5035919050565b6001600160a01b03811681146103c0575f5ffd5b5f5f5f5f608085870312156111fe575f5ffd5b8435611209816111d7565b935060208501359250604085013591506060850135611227816111d7565b939692955090935050565b6001600160a01b039384168152919092166020820152604081019190915260600190565b634e487b7160e01b5f52601160045260245ffd5b808202811582820484141761128157611281611256565b92915050565b5f826112a157634e487b7160e01b5f52601260045260245ffd5b500490565b8181038181111561128157611281611256565b5f602082840312156112c9575f5ffd5b5051919050565b5f602082840312156112e0575f5ffd5b815180151581146112ef575f5ffd5b9392505050565b5f60208284031215611306575f5ffd5b81516112ef816111d7565b5f6001820161132257611322611256565b506001019056fea2646970667358221220e32aea22890accf44dc353341a5e051add63c2a41fc972cdaf78a09b79dfd91164736f6c634300081c0033",
  "linkReferences": {},
  "deployedLinkReferences": {},
  "immutableReferences": {},
  "inputSourceName": "project/contracts/NFTMarketPlace.sol",
  "buildInfoId": "solc-0_8_28-40a393e7cad4769df708116a4fa67c2727b7c59c"
}