{
  "_format": "hh3-artifact-1",
  "contractName": "MyToken",
  "sourceName": "contracts/MyToken.sol",
  "abi": [
    {
      "inputs": [
        {
          "internalType": "address",
          "name": "initialOwner",
          "type": "address"
        },
        {
          "internalType": "string",
          "name": "tokenName",
          "type": "string"
        },
        {
          "internalType": "string",
          "name": "tokenSymbol",
          "type": "string"
        },
        {
          "internalType": "uint256",
          "name": "initialTokenSupply",
          "type": "uint256"
        }
      ],
      "stateMutability": "nonpayable",
      "type": "constructor"
    },
    {
      "inputs": [
        {
          "internalType": "address",
          "name": "spender",
          "type": "address"
        },
        {
          "internalType": "uint256",
          "name": "allowance",
          "type": "uint256"
        },
        {
          "internalType": "uint256",
          "name": "needed",
          "type": "uint256"
        }
      ],
      "name": "ERC20InsufficientAllowance",
      "type": "error"
    },
    {
      "inputs": [
        {
          "internalType": "address",
          "name": "sender",
          "type": "address"
        },
        {
          "internalType": "uint256",
          "name": "balance",
          "type": "uint256"
        },
        {
          "internalType": "uint256",
          "name": "needed",
          "type": "uint256"
        }
      ],
      "name": "ERC20InsufficientBalance",
      "type": "error"
    },
    {
      "inputs": [
        {
          "internalType": "address",
          "name": "approver",
          "type": "address"
        }
      ],
      "name": "ERC20InvalidApprover",
      "type": "error"
    },
    {
      "inputs": [
        {
          "internalType": "address",
          "name": "receiver",
          "type": "address"
        }
      ],
      "name": "ERC20InvalidReceiver",
      "type": "error"
    },
    {
      "inputs": [
        {
          "internalType": "address",
          "name": "sender",
          "type": "address"
        }
      ],
      "name": "ERC20InvalidSender",
      "type": "error"
    },
    {
      "inputs": [
        {
          "internalType": "address",
          "name": "spender",
          "type": "address"
        }
      ],
      "name": "ERC20InvalidSpender",
      "type": "error"
    },
    {
      "inputs": [
        {
          "internalType": "address",
          "name": "owner",
          "type": "address"
        }
      ],
      "name": "OwnableInvalidOwner",
      "type": "error"
    },
    {
      "inputs": [
        {
          "internalType": "address",
          "name": "account",
          "type": "address"
        }
      ],
      "name": "OwnableUnauthorizedAccount",
      "type": "error"
    },
    {
      "anonymous": false,
      "inputs": [
        {
          "indexed": true,
          "internalType": "address",
          "name": "owner",
          "type": "address"
        },
        {
          "indexed": true,
          "internalType": "address",
          "name": "spender",
          "type": "address"
        },
        {
          "indexed": false,
          "internalType": "uint256",
          "name": "value",
          "type": "uint256"
        }
      ],
      "name": "Approval",
      "type": "event"
    },
    {
      "anonymous": false,
      "inputs": [
        {
          "indexed": true,
          "internalType": "uint256",
          "name": "amount",
          "type": "uint256"
        }
      ],
      "name": "Burn",
      "type": "event"
    },
    {
      "anonymous": false,
      "inputs": [
        {
          "indexed": true,
          "internalType": "uint256",
          "name": "amount",
          "type": "uint256"
        }
      ],
      "name": "Mint",
      "type": "event"
    },
    {
      "anonymous": false,
      "inputs": [
        {
          "indexed": true,
          "internalType": "address",
          "name": "previousOwner",
          "type": "address"
        },
        {
          "indexed": true,
          "internalType": "address",
          "name": "newOwner",
          "type": "address"
        }
      ],
      "name": "OwnershipTransferred",
      "type": "event"
    },
    {
      "anonymous": false,
      "inputs": [
        {
          "indexed": true,
          "internalType": "address",
          "name": "from",
          "type": "address"
        },
        {
          "indexed": true,
          "internalType": "address",
          "name": "to",
          "type": "address"
        },
        {
          "indexed": false,
          "internalType": "uint256",
          "name": "value",
          "type": "uint256"
        }
      ],
      "name": "Transfer",
      "type": "event"
    },
    {
      "inputs": [
        {
          "internalType": "address",
          "name": "owner",
          "type": "address"
        },
        {
          "internalType": "address",
          "name": "spender",
          "type": "address"
        }
      ],
      "name": "allowance",
      "outputs": [
        {
          "internalType": "uint256",
          "name": "",
          "type": "uint256"
        }
      ],
      "stateMutability": "view",
      "type": "function"
    },
    {
      "inputs": [
        {
          "internalType": "address",
          "name": "spender",
          "type": "address"
        },
        {
          "internalType": "uint256",
          "name": "value",
          "type": "uint256"
        }
      ],
      "name": "approve",
      "outputs": [
        {
          "internalType": "bool",
          "name": "",
          "type": "bool"
        }
      ],
      "stateMutability": "nonpayable",
      "type": "function"
    },
    {
      "inputs": [
        {
          "internalType": "address",
          "name": "account",
          "type": "address"
        }
      ],
      "name": "balanceOf",
      "outputs": [
        {
          "internalType": "uint256",
          "name": "",
          "type": "uint256"
        }
      ],
      "stateMutability": "view",
      "type": "function"
    },
    {
      "inputs": [
        {
          "internalType": "address",
          "name": "to",
          "type": "address"
        },
        {
          "internalType": "uint256",
          "name": "_amount",
          "type": "uint256"
        }
      ],
      "name": "burnToken",
      "outputs": [],
      "stateMutability": "nonpayable",
      "type": "function"
    },
    {
      "inputs": [],
      "name": "decimals",
      "outputs": [
        {
          "internalType": "uint8",
          "name": "",
          "type": "uint8"
        }
      ],
      "stateMutability": "view",
      "type": "function"
    },
    {
      "inputs": [
        {
          "internalType": "address",
          "name": "to",
          "type": "address"
        },
        {
          "internalType": "uint256",
          "name": "_amount",
          "type": "uint256"
        }
      ],
      "name": "mintToken",
      "outputs": [],
      "stateMutability": "nonpayable",
      "type": "function"
    },
    {
      "inputs": [],
      "name": "name",
      "outputs": [
        {
          "internalType": "string",
          "name": "",
          "type": "string"
        }
      ],
      "stateMutability": "view",
      "type": "function"
    },
    {
      "inputs": [],
      "name": "owner",
      "outputs": [
        {
          "internalType": "address",
          "name": "",
          "type": "address"
        }
      ],
      "stateMutability": "view",
      "type": "function"
    },
    {
      "inputs": [],
      "name": "renounceOwnership",
      "outputs": [],
      "stateMutability": "nonpayable",
      "type": "function"
    },
    {
      "inputs": [],
      "name": "symbol",
      "outputs": [
        {
          "internalType": "string",
          "name": "",
          "type": "string"
        }
      ],
      "stateMutability": "view",
      "type": "function"
    },
    {
      "inputs": [],
      "name": "totalSupply",
      "outputs": [
        {
          "internalType": "uint256",
          "name": "",
          "type": "uint256"
        }
      ],
      "stateMutability": "view",
      "type": "function"
    },
    {
      "inputs": [
        {
          "internalType": "address",
          "name": "to",
          "type": "address"
        },
        {
          "internalType": "uint256",
          "name": "value",
          "type": "uint256"
        }
      ],
      "name": "transfer",
      "outputs": [
        {
          "internalType": "bool",
          "name": "",
          "type": "bool"
        }
      ],
      "stateMutability": "nonpayable",
      "type": "function"
    },
    {
      "inputs": [
        {
          "internalType": "address",
          "name": "from",
          "type": "address"
        },
        {
          "internalType": "address",
          "name": "to",
          "type": "address"
        },
        {
          "internalType": "uint256",
          "name": "value",
          "type": "uint256"
        }
      ],
      "name": "transferFrom",
      "outputs": [
        {
          "internalType": "bool",
          "name": "",
          "type": "bool"
        }
      ],
      "stateMutability": "nonpayable",
      "type": "function"
    },
    {
      "inputs": [
        {
          "internalType": "address",
          "name": "newOwner",
          "type": "address"
        }
      ],
      "name": "transferOwnership",
      "outputs": [],
      "stateMutability": "nonpayable",
      "type": "function"
    }
  ],
  "bytecode": "0x608060405234801561000f575f5ffd5b5060405161108938038061108983398101604081905261002e916102f9565b838383600361003d8382610407565b50600461004a8282610407565b5050506001600160a01b03811661007b57604051631e4fbdf760e01b81525f60048201526024015b60405180910390fd5b610084816100ad565b506100a4846100956012600a6105ba565b61009f90846105cf565b6100fe565b505050506105f9565b600580546001600160a01b038381166001600160a01b0319831681179093556040519116919082907f8be0079c531659141344cd1fd0a4f28419497f9722a3daafe3b4186f6b6457e0905f90a35050565b6001600160a01b0382166101275760405163ec442f0560e01b81525f6004820152602401610072565b6101325f8383610136565b5050565b6001600160a01b038316610160578060025f82825461015591906105e6565b909155506101d09050565b6001600160a01b0383165f90815260208190526040902054818110156101b25760405163391434e360e21b81526001600160a01b03851660048201526024810182905260448101839052606401610072565b6001600160a01b0384165f9081526020819052604090209082900390555b6001600160a01b0382166101ec5760028054829003905561020a565b6001600160a01b0382165f9081526020819052604090208054820190555b816001600160a01b0316836001600160a01b03167fddf252ad1be2c89b69c2b068fc378daa952ba7f163c4a11628f55a4df523b3ef8360405161024f91815260200190565b60405180910390a3505050565b634e487b7160e01b5f52604160045260245ffd5b5f82601f83011261027f575f5ffd5b81516001600160401b038111156102985761029861025c565b604051601f8201601f19908116603f011681016001600160401b03811182821017156102c6576102c661025c565b6040528181528382016020018510156102dd575f5ffd5b8160208501602083015e5f918101602001919091529392505050565b5f5f5f5f6080858703121561030c575f5ffd5b84516001600160a01b0381168114610322575f5ffd5b60208601519094506001600160401b0381111561033d575f5ffd5b61034987828801610270565b604087015190945090506001600160401b03811115610366575f5ffd5b61037287828801610270565b606096909601519497939650505050565b600181811c9082168061039757607f821691505b6020821081036103b557634e487b7160e01b5f52602260045260245ffd5b50919050565b601f82111561040257805f5260205f20601f840160051c810160208510156103e05750805b601f840160051c820191505b818110156103ff575f81556001016103ec565b50505b505050565b81516001600160401b038111156104205761042061025c565b6104348161042e8454610383565b846103bb565b6020601f821160018114610466575f831561044f5750848201515b5f19600385901b1c1916600184901b1784556103ff565b5f84815260208120601f198516915b828110156104955787850151825560209485019460019092019101610475565b50848210156104b257868401515f19600387901b60f8161c191681555b50505050600190811b01905550565b634e487b7160e01b5f52601160045260245ffd5b6001815b6001841115610510578085048111156104f4576104f46104c1565b600184161561050257908102905b60019390931c9280026104d9565b935093915050565b5f82610526575060016105b4565b8161053257505f6105b4565b816001811461054857600281146105525761056e565b60019150506105b4565b60ff841115610563576105636104c1565b50506001821b6105b4565b5060208310610133831016604e8410600b8410161715610591575081810a6105b4565b61059d5f1984846104d5565b805f19048211156105b0576105b06104c1565b0290505b92915050565b5f6105c860ff841683610518565b9392505050565b80820281158282048414176105b4576105b46104c1565b808201808211156105b4576105b46104c1565b610a83806106065f395ff3fe608060405234801561000f575f5ffd5b50600436106100e5575f3560e01c806379c6506811610088578063a9059cbb11610063578063a9059cbb146101c6578063d1df306c146101d9578063dd62ed3e146101ec578063f2fde38b14610224575f5ffd5b806379c65068146101905780638da5cb5b146101a357806395d89b41146101be575f5ffd5b806323b872dd116100c357806323b872dd1461013c578063313ce5671461014f57806370a082311461015e578063715018a614610186575f5ffd5b806306fdde03146100e9578063095ea7b31461010757806318160ddd1461012a575b5f5ffd5b6100f1610237565b6040516100fe91906107e3565b60405180910390f35b61011a610115366004610833565b6102c7565b60405190151581526020016100fe565b6002545b6040519081526020016100fe565b61011a61014a36600461085b565b6102e0565b604051601281526020016100fe565b61012e61016c366004610895565b6001600160a01b03165f9081526020819052604090205490565b61018e610303565b005b61018e61019e366004610833565b610316565b6005546040516001600160a01b0390911681526020016100fe565b6100f161036b565b61011a6101d4366004610833565b61037a565b61018e6101e7366004610833565b610387565b61012e6101fa3660046108b5565b6001600160a01b039182165f90815260016020908152604080832093909416825291909152205490565b61018e610232366004610895565b6103d4565b606060038054610246906108e6565b80601f0160208091040260200160405190810160405280929190818152602001828054610272906108e6565b80156102bd5780601f10610294576101008083540402835291602001916102bd565b820191905f5260205f20905b8154815290600101906020018083116102a057829003601f168201915b5050505050905090565b5f336102d4818585610416565b60019150505b92915050565b5f336102ed858285610428565b6102f88585856104a4565b506001949350505050565b61030b610501565b6103145f61052e565b565b61031e610501565b61033d8261032e6012600a610a15565b6103389084610a23565b61057f565b60405181907f07883703ed0e86588a40d76551c92f8a4b329e3bf19765e0e6749473c1a84665905f90a25050565b606060048054610246906108e6565b5f336102d48185856104a4565b6103a6826103976012600a610a15565b6103a19084610a23565b6105b7565b60405181907fb90306ad06b2a6ff86ddc9327db583062895ef6540e62dc50add009db5b356eb905f90a25050565b6103dc610501565b6001600160a01b03811661040a57604051631e4fbdf760e01b81525f60048201526024015b60405180910390fd5b6104138161052e565b50565b61042383838360016105eb565b505050565b6001600160a01b038381165f908152600160209081526040808320938616835292905220545f1981101561049e578181101561049057604051637dc7a0d960e11b81526001600160a01b03841660048201526024810182905260448101839052606401610401565b61049e84848484035f6105eb565b50505050565b6001600160a01b0383166104cd57604051634b637e8f60e11b81525f6004820152602401610401565b6001600160a01b0382166104f65760405163ec442f0560e01b81525f6004820152602401610401565b6104238383836106bd565b6005546001600160a01b031633146103145760405163118cdaa760e01b8152336004820152602401610401565b600580546001600160a01b038381166001600160a01b0319831681179093556040519116919082907f8be0079c531659141344cd1fd0a4f28419497f9722a3daafe3b4186f6b6457e0905f90a35050565b6001600160a01b0382166105a85760405163ec442f0560e01b81525f6004820152602401610401565b6105b35f83836106bd565b5050565b6001600160a01b0382166105e057604051634b637e8f60e11b81525f6004820152602401610401565b6105b3825f836106bd565b6001600160a01b0384166106145760405163e602df0560e01b81525f6004820152602401610401565b6001600160a01b03831661063d57604051634a1406b160e11b81525f6004820152602401610401565b6001600160a01b038085165f908152600160209081526040808320938716835292905220829055801561049e57826001600160a01b0316846001600160a01b03167f8c5be1e5ebec7d5bd14f71427d1e84f3dd0314c0f7b2291e5b200ac8c7c3b925846040516106af91815260200190565b60405180910390a350505050565b6001600160a01b0383166106e7578060025f8282546106dc9190610a3a565b909155506107579050565b6001600160a01b0383165f90815260208190526040902054818110156107395760405163391434e360e21b81526001600160a01b03851660048201526024810182905260448101839052606401610401565b6001600160a01b0384165f9081526020819052604090209082900390555b6001600160a01b03821661077357600280548290039055610791565b6001600160a01b0382165f9081526020819052604090208054820190555b816001600160a01b0316836001600160a01b03167fddf252ad1be2c89b69c2b068fc378daa952ba7f163c4a11628f55a4df523b3ef836040516107d691815260200190565b60405180910390a3505050565b602081525f82518060208401528060208501604085015e5f604082850101526040601f19601f83011684010191505092915050565b80356001600160a01b038116811461082e575f5ffd5b919050565b5f5f60408385031215610844575f5ffd5b61084d83610818565b946020939093013593505050565b5f5f5f6060848603121561086d575f5ffd5b61087684610818565b925061088460208501610818565b929592945050506040919091013590565b5f602082840312156108a5575f5ffd5b6108ae82610818565b9392505050565b5f5f604083850312156108c6575f5ffd5b6108cf83610818565b91506108dd60208401610818565b90509250929050565b600181811c908216806108fa57607f821691505b60208210810361091857634e487b7160e01b5f52602260045260245ffd5b50919050565b634e487b7160e01b5f52601160045260245ffd5b6001815b600184111561096d578085048111156109515761095161091e565b600184161561095f57908102905b60019390931c928002610936565b935093915050565b5f82610983575060016102da565b8161098f57505f6102da565b81600181146109a557600281146109af576109cb565b60019150506102da565b60ff8411156109c0576109c061091e565b50506001821b6102da565b5060208310610133831016604e8410600b84101617156109ee575081810a6102da565b6109fa5f198484610932565b805f1904821115610a0d57610a0d61091e565b029392505050565b5f6108ae60ff841683610975565b80820281158282048414176102da576102da61091e565b808201808211156102da576102da61091e56fea2646970667358221220077da9b13072bd9bbe0ddc884565ec0e972aa8267eddb65cdcd0490474d6a54d64736f6c634300081c0033",
  "linkReferences": {},
  "deployedLinkReferences": {},
  "immutableReferences": {},
  "inputSourceName": "project/contracts/MyToken.sol",
  "buildInfoId": "solc-0_8_28-3f8001f16117415635c3409d4454124c4b777260"
}