{
    "_format": "hh3-artifact-1",
    "contractName": "NFTMarketPlace",
    "sourceName": "contracts/NFTMarketPlace.sol",
    "abi": [
        {
            "inputs": [],
            "stateMutability": "nonpayable",
            "type": "constructor"
        },
        {
            "inputs": [],
            "name": "ReentrancyGuardReentrantCall",
            "type": "error"
        },
        {
            "anonymous": false,
            "inputs": [
                {
                    "indexed": true,
                    "internalType": "uint256",
                    "name": "orderId",
                    "type": "uint256"
                },
                {
                    "indexed": true,
                    "internalType": "uint256",
                    "name": "timestamp",
                    "type": "uint256"
                }
            ],
            "name": "OrderCancelled",
            "type": "event"
        },
        {
            "anonymous": false,
            "inputs": [
                {
                    "indexed": true,
                    "internalType": "uint256",
                    "name": "orderId",
                    "type": "uint256"
                },
                {
                    "indexed": true,
                    "internalType": "address",
                    "name": "seller",
                    "type": "address"
                },
                {
                    "indexed": false,
                    "internalType": "address",
                    "name": "nftContract",
                    "type": "address"
                },
                {
                    "indexed": true,
                    "internalType": "uint256",
                    "name": "tokenId",
                    "type": "uint256"
                },
                {
                    "indexed": false,
                    "internalType": "string",
                    "name": "cid",
                    "type": "string"
                },
                {
                    "indexed": false,
                    "internalType": "uint256",
                    "name": "price",
                    "type": "uint256"
                },
                {
                    "indexed": false,
                    "internalType": "address",
                    "name": "paymentToken",
                    "type": "address"
                },
                {
                    "indexed": false,
                    "internalType": "uint256",
                    "name": "timestamp",
                    "type": "uint256"
                },
                {
                    "indexed": false,
                    "internalType": "bool",
                    "name": "isActive",
                    "type": "bool"
                },
                {
                    "indexed": false,
                    "internalType": "bool",
                    "name": "isEscrowed",
                    "type": "bool"
                }
            ],
            "name": "OrderCreated",
            "type": "event"
        },
        {
            "anonymous": false,
            "inputs": [
                {
                    "indexed": true,
                    "internalType": "uint256",
                    "name": "orderId",
                    "type": "uint256"
                },
                {
                    "indexed": true,
                    "internalType": "address",
                    "name": "buyer",
                    "type": "address"
                },
                {
                    "indexed": false,
                    "internalType": "uint256",
                    "name": "timestamp",
                    "type": "uint256"
                }
            ],
            "name": "OrderExecuted",
            "type": "event"
        },
        {
            "inputs": [],
            "name": "admin",
            "outputs": [
                {
                    "internalType": "address",
                    "name": "",
                    "type": "address"
                }
            ],
            "stateMutability": "view",
            "type": "function"
        },
        {
            "inputs": [
                {
                    "internalType": "uint256",
                    "name": "_orderId",
                    "type": "uint256"
                }
            ],
            "name": "buyNFT",
            "outputs": [],
            "stateMutability": "payable",
            "type": "function"
        },
        {
            "inputs": [
                {
                    "internalType": "uint256",
                    "name": "_orderId",
                    "type": "uint256"
                }
            ],
            "name": "cancelOrder",
            "outputs": [],
            "stateMutability": "nonpayable",
            "type": "function"
        },
        {
            "inputs": [
                {
                    "internalType": "address",
                    "name": "nftContract",
                    "type": "address"
                },
                {
                    "internalType": "uint256",
                    "name": "tokenId",
                    "type": "uint256"
                },
                {
                    "internalType": "uint256",
                    "name": "price",
                    "type": "uint256"
                },
                {
                    "internalType": "address",
                    "name": "paymentToken",
                    "type": "address"
                },
                {
                    "internalType": "string",
                    "name": "cid",
                    "type": "string"
                }
            ],
            "name": "createOrder",
            "outputs": [],
            "stateMutability": "nonpayable",
            "type": "function"
        },
        {
            "inputs": [
                {
                    "internalType": "address",
                    "name": "nftContract",
                    "type": "address"
                },
                {
                    "internalType": "uint256",
                    "name": "tokenId",
                    "type": "uint256"
                },
                {
                    "internalType": "uint256",
                    "name": "price",
                    "type": "uint256"
                },
                {
                    "internalType": "address",
                    "name": "paymentToken",
                    "type": "address"
                },
                {
                    "internalType": "string",
                    "name": "cid",
                    "type": "string"
                }
            ],
            "name": "createOrderWithEscrow",
            "outputs": [],
            "stateMutability": "nonpayable",
            "type": "function"
        },
        {
            "inputs": [],
            "name": "nextOrderId",
            "outputs": [
                {
                    "internalType": "uint256",
                    "name": "",
                    "type": "uint256"
                }
            ],
            "stateMutability": "view",
            "type": "function"
        },
        {
            "inputs": [
                {
                    "internalType": "uint256",
                    "name": "",
                    "type": "uint256"
                }
            ],
            "name": "orders",
            "outputs": [
                {
                    "internalType": "uint256",
                    "name": "orderId",
                    "type": "uint256"
                },
                {
                    "internalType": "address",
                    "name": "seller",
                    "type": "address"
                },
                {
                    "internalType": "address",
                    "name": "nftContract",
                    "type": "address"
                },
                {
                    "internalType": "uint256",
                    "name": "tokenId",
                    "type": "uint256"
                },
                {
                    "internalType": "string",
                    "name": "cid",
                    "type": "string"
                },
                {
                    "internalType": "uint256",
                    "name": "price",
                    "type": "uint256"
                },
                {
                    "internalType": "address",
                    "name": "paymentToken",
                    "type": "address"
                },
                {
                    "internalType": "bool",
                    "name": "isActive",
                    "type": "bool"
                },
                {
                    "internalType": "bool",
                    "name": "isEscrowed",
                    "type": "bool"
                }
            ],
            "stateMutability": "view",
            "type": "function"
        },
        {
            "inputs": [],
            "name": "platformFee",
            "outputs": [
                {
                    "internalType": "uint256",
                    "name": "",
                    "type": "uint256"
                }
            ],
            "stateMutability": "view",
            "type": "function"
        },
        {
            "stateMutability": "payable",
            "type": "receive"
        }
    ],
    "bytecode": "0x608060405260196002553480156013575f5ffd5b5060015f81905580546001600160a01b031916331790556116ba806100375f395ff3fe60806040526004361061007c575f3560e01c8063a85c38ef1161004c578063a85c38ef146100f8578063c9adacb71461012c578063d945ede81461014b578063f851a4401461016a575f5ffd5b806326232a2e146100875780632a58b330146100af578063514fcac7146100c457806351ed8288146100e5575f5ffd5b3661008357005b5f5ffd5b348015610092575f5ffd5b5061009c60025481565b6040519081526020015b60405180910390f35b3480156100ba575f5ffd5b5061009c60045481565b3480156100cf575f5ffd5b506100e36100de366004611233565b6101a1565b005b6100e36100f3366004611233565b610330565b348015610103575f5ffd5b50610117610112366004611233565b610964565b6040516100a699989796959493929190611278565b348015610137575f5ffd5b506100e361014636600461130d565b610a54565b348015610156575f5ffd5b506100e361016536600461130d565b610e6c565b348015610175575f5ffd5b50600154610189906001600160a01b031681565b6040516001600160a01b0390911681526020016100a6565b6101a961120b565b5f8181526003602052604090206006810154600160a01b900460ff166102115760405162461bcd60e51b81526020600482015260186024820152771d15d45cb1b2bcd2f41cd2b11cd112dcb6f65cb1f2dcd6d160431b60448201526064015b60405180910390fd5b60018101546001600160a01b031633146102625760405162461bcd60e51b8152602060048201526012602482015271e697a0e69d83e58f96e6b688e8aea2e58d9560701b6044820152606401610208565b6006810154600160a81b900460ff16156102e5576002810154600182015460038301546040516323b872dd60e01b81526001600160a01b03938416936323b872dd936102b793309392909116916004016113f7565b5f604051808303815f87803b1580156102ce575f5ffd5b505af11580156102e0573d5f5f3e3d5ffd5b505050505b60068101805460ff60a01b191690556040514290819084907faa2a006d186dc89a3d6851834c85d16226329ac40bcad6531a5756a38ed1c90f905f90a3505061032d60015f55565b50565b61033861120b565b5f8181526003602052604090206006810154600160a01b900460ff1661039b5760405162461bcd60e51b81526020600482015260186024820152771d15d45cb1b2bcd2f41cd2b11cd112dcb6f65cb1f2dcd6d160431b6044820152606401610208565b60018101546001600160a01b031633036103f75760405162461bcd60e51b815260206004820152601960248201527fe4b88de883bde8b4ade4b9b0e887aae5b7b1e79a84204e4654000000000000006044820152606401610208565b600181015460028083015460038401546005850154600686015493546001600160a01b03958616959384169492939192909116905f906103e89061043b908561142f565b610445919061144c565b90505f610452828561146b565b90506001600160a01b0383166105f7578334146104b15760405162461bcd60e51b815260206004820152601d60248201527fe694afe4bb98e79a842045544820e695b0e9878fe4b88de58cb9e9858d0000006044820152606401610208565b5f876001600160a01b0316826040515f6040518083038185875af1925050503d805f81146104fa576040519150601f19603f3d011682016040523d82523d5f602084013e6104ff565b606091505b50509050806105505760405162461bcd60e51b815260206004820152601760248201527fe58d96e5aeb62045544820e8bdace8b4a6e5a4b1e8b4a50000000000000000006044820152606401610208565b6001546040515f916001600160a01b03169085908381818185875af1925050503d805f811461059a576040519150601f19603f3d011682016040523d82523d5f602084013e61059f565b606091505b50509050806105f05760405162461bcd60e51b815260206004820152601b60248201527fe5b9b3e58fb0e6898be7bbade8b4b9e8bdace8b4a6e5a4b1e8b4a500000000006044820152606401610208565b5050610833565b604051636eb1769f60e11b8152336004820152306024820152839085906001600160a01b0383169063dd62ed3e90604401602060405180830381865afa158015610643573d5f5f3e3d5ffd5b505050506040513d601f19601f82011682018060405250810190610667919061147e565b10156106b55760405162461bcd60e51b815260206004820152601e60248201527fe8afb7e58588e68e88e69d83e5b9b3e58fb0e8bdace7a7bbe4bba3e5b88100006044820152606401610208565b6040516323b872dd60e01b81526001600160a01b038216906323b872dd906106e59033908c9087906004016113f7565b6020604051808303815f875af1158015610701573d5f5f3e3d5ffd5b505050506040513d601f19601f820116820180604052508101906107259190611495565b6107715760405162461bcd60e51b815260206004820152601860248201527fe58d96e5aeb6e4bba3e5b881e8bdace8b4a6e5a4b1e8b4a500000000000000006044820152606401610208565b6001546040516323b872dd60e01b81526001600160a01b03808416926323b872dd926107a5923392169088906004016113f7565b6020604051808303815f875af11580156107c1573d5f5f3e3d5ffd5b505050506040513d601f19601f820116820180604052508101906107e59190611495565b6108315760405162461bcd60e51b815260206004820152601b60248201527fe5b9b3e58fb0e6898be7bbade8b4b9e8bdace8b4a6e5a4b1e8b4a500000000006044820152606401610208565b505b60068801548690600160a81b900460ff16156108ab576040516323b872dd60e01b81526001600160a01b038216906323b872dd9061087990309033908b906004016113f7565b5f604051808303815f87803b158015610890575f5ffd5b505af11580156108a2573d5f5f3e3d5ffd5b50505050610909565b6040516323b872dd60e01b81526001600160a01b038216906323b872dd906108db908b9033908b906004016113f7565b5f604051808303815f87803b1580156108f2575f5ffd5b505af1158015610904573d5f5f3e3d5ffd5b505050505b60068901805460ff60a01b19169055604051428082529033908c907f9b32d7714729bdcd899b9c5460b1ec55a813e10e7a51271f146949e4e19f7b999060200160405180910390a35050505050505050505061032d60015f55565b600360208190525f91825260409091208054600182015460028301549383015460048401805493956001600160a01b03938416959316939192916109a7906114bb565b80601f01602080910402602001604051908101604052809291908181526020018280546109d3906114bb565b8015610a1e5780601f106109f557610100808354040283529160200191610a1e565b820191905f5260205f20905b815481529060010190602001808311610a0157829003601f168201915b50505060058401546006909401549293926001600160a01b038116925060ff600160a01b820481169250600160a81b9091041689565b610a5c61120b565b6040516331a9108f60e11b815260048101859052859033906001600160a01b03831690636352211e90602401602060405180830381865afa158015610aa3573d5f5f3e3d5ffd5b505050506040513d601f19601f82011682018060405250810190610ac791906114f3565b6001600160a01b031614610b145760405162461bcd60e51b8152602060048201526014602482015273e4b88de698af204e465420e68980e69c89e8808560601b6044820152606401610208565b60405163e985e9c560e01b81523360048201523060248201526001600160a01b0382169063e985e9c590604401602060405180830381865afa158015610b5c573d5f5f3e3d5ffd5b505050506040513d601f19601f82011682018060405250810190610b809190611495565b80610bfa575060405163020604bf60e21b81526004810186905230906001600160a01b0383169063081812fc90602401602060405180830381865afa158015610bcb573d5f5f3e3d5ffd5b505050506040513d601f19601f82011682018060405250810190610bef91906114f3565b6001600160a01b0316145b610c465760405162461bcd60e51b815260206004820152601c60248201527fe8afb7e58588e68e88e69d83e5b9b3e58fb0e8bdace7a7bb204e4654000000006044820152606401610208565b5f8411610c8c5760405162461bcd60e51b81526020600482015260146024820152730e4bbb7e6a0bce5bf85e9a1bbe5a4a7e4ba8e20360641b6044820152606401610208565b6040516323b872dd60e01b81526001600160a01b038216906323b872dd90610cbc90339030908a906004016113f7565b5f604051808303815f87803b158015610cd3575f5ffd5b505af1158015610ce5573d5f5f3e3d5ffd5b5050600480545f9350915082610cfa8361150e565b9091555060408051610120810182528281523360208083019182526001600160a01b038c8116848601908152606085018d8152608086018b815260a087018e90528c841660c0880152600160e0880181905261010088018190525f8a81526003968790529890982087518155955197860180549885166001600160a01b0319998a161790559151600286018054919094169716969096179091559351908201559151929350916004820190610daf908261156f565b5060a0820151600582015560c08201516006909101805460e0840151610100909401511515600160a81b0260ff60a81b19941515600160a01b026001600160a81b03199092166001600160a01b0390941693909317179290921617905560405142908790339084907fca2b119696253bb319cbcae97b5bc18e7981b51f3460b960e8b9c355d666358f90610e51908d908a908d908d908a90600190819061162a565b60405180910390a4505050610e6560015f55565b5050505050565b610e7461120b565b6040516331a9108f60e11b815260048101859052859033906001600160a01b03831690636352211e90602401602060405180830381865afa158015610ebb573d5f5f3e3d5ffd5b505050506040513d601f19601f82011682018060405250810190610edf91906114f3565b6001600160a01b031614610f2c5760405162461bcd60e51b8152602060048201526014602482015273e4b88de698af204e465420e68980e69c89e8808560601b6044820152606401610208565b60405163e985e9c560e01b81523360048201523060248201526001600160a01b0382169063e985e9c590604401602060405180830381865afa158015610f74573d5f5f3e3d5ffd5b505050506040513d601f19601f82011682018060405250810190610f989190611495565b80611012575060405163020604bf60e21b81526004810186905230906001600160a01b0383169063081812fc90602401602060405180830381865afa158015610fe3573d5f5f3e3d5ffd5b505050506040513d601f19601f8201168201806040525081019061100791906114f3565b6001600160a01b0316145b61105e5760405162461bcd60e51b815260206004820152601c60248201527fe8afb7e58588e68e88e69d83e5b9b3e58fb0e8bdace7a7bb204e4654000000006044820152606401610208565b5f84116110a45760405162461bcd60e51b81526020600482015260146024820152730e4bbb7e6a0bce5bf85e9a1bbe5a4a7e4ba8e20360641b6044820152606401610208565b600480545f91826110b48361150e565b9091555060408051610120810182528281523360208083019182526001600160a01b038c8116848601908152606085018d8152608086018b815260a087018e90528c841660c0880152600160e088018190525f61010089018190528a81526003968790529890982087518155955197860180549885166001600160a01b0319998a161790559151600286018054919094169716969096179091559351908201559151929350916004820190611169908261156f565b5060a0820151600582015560c08201516006909101805460e0840151610100909401511515600160a81b0260ff60a81b19941515600160a01b026001600160a81b03199092166001600160a01b0390941693909317179290921617905560405142908790339084907fca2b119696253bb319cbcae97b5bc18e7981b51f3460b960e8b9c355d666358f90610e51908d908a908d908d908a906001905f9061162a565b60025f540361122d57604051633ee5aeb560e01b815260040160405180910390fd5b60025f55565b5f60208284031215611243575f5ffd5b5035919050565b5f81518084528060208401602086015e5f602082860101526020601f19601f83011685010191505092915050565b8981526001600160a01b0389811660208301528816604082015260608101879052610120608082018190525f906112b19083018861124a565b60a0830196909652506001600160a01b039390931660c084015290151560e083015215156101009091015295945050505050565b6001600160a01b038116811461032d575f5ffd5b634e487b7160e01b5f52604160045260245ffd5b5f5f5f5f5f60a08688031215611321575f5ffd5b853561132c816112e5565b94506020860135935060408601359250606086013561134a816112e5565b9150608086013567ffffffffffffffff811115611365575f5ffd5b8601601f81018813611375575f5ffd5b803567ffffffffffffffff81111561138f5761138f6112f9565b604051601f8201601f19908116603f0116810167ffffffffffffffff811182821017156113be576113be6112f9565b6040528181528282016020018a10156113d5575f5ffd5b816020840160208301375f602083830101528093505050509295509295909350565b6001600160a01b039384168152919092166020820152604081019190915260600190565b634e487b7160e01b5f52601160045260245ffd5b80820281158282048414176114465761144661141b565b92915050565b5f8261146657634e487b7160e01b5f52601260045260245ffd5b500490565b818103818111156114465761144661141b565b5f6020828403121561148e575f5ffd5b5051919050565b5f602082840312156114a5575f5ffd5b815180151581146114b4575f5ffd5b9392505050565b600181811c908216806114cf57607f821691505b6020821081036114ed57634e487b7160e01b5f52602260045260245ffd5b50919050565b5f60208284031215611503575f5ffd5b81516114b4816112e5565b5f6001820161151f5761151f61141b565b5060010190565b601f82111561156a57805f5260205f20601f840160051c8101602085101561154b5750805b601f840160051c820191505b81811015610e65575f8155600101611557565b505050565b815167ffffffffffffffff811115611589576115896112f9565b61159d8161159784546114bb565b84611526565b6020601f8211600181146115cf575f83156115b85750848201515b5f19600385901b1c1916600184901b178455610e65565b5f84815260208120601f198516915b828110156115fe57878501518255602094850194600190920191016115de565b508482101561161b57868401515f19600387901b60f8161c191681555b50505050600190811b01905550565b6001600160a01b038816815260e0602082018190525f9061164d9083018961124a565b6040830197909752506001600160a01b039490941660608501526080840192909252151560a0830152151560c0909101529291505056fea264697066735822122016cdd5f227995e0a11352be33b86faf07da020e9dea39ec9f659d7501305804564736f6c634300081c0033",
    "linkReferences": {},
    "deployedLinkReferences": {},
    "immutableReferences": {},
    "inputSourceName": "project/contracts/NFTMarketPlace.sol",
    "buildInfoId": "solc-0_8_28-834cebbe7f64811476498910d6a39547221d1458"
}