{
    "_format": "hh3-artifact-1",
    "contractName": "NFTMarketPlace",
    "sourceName": "contracts/NFTMarketPlace.sol",
    "abi": [
        {
            "inputs": [],
            "stateMutability": "nonpayable",
            "type": "constructor"
        },
        {
            "inputs": [],
            "name": "ReentrancyGuardReentrantCall",
            "type": "error"
        },
        {
            "anonymous": false,
            "inputs": [
                {
                    "indexed": true,
                    "internalType": "uint256",
                    "name": "orderId",
                    "type": "uint256"
                }
            ],
            "name": "OrderCancelled",
            "type": "event"
        },
        {
            "anonymous": false,
            "inputs": [
                {
                    "indexed": true,
                    "internalType": "uint256",
                    "name": "orderId",
                    "type": "uint256"
                },
                {
                    "indexed": true,
                    "internalType": "address",
                    "name": "seller",
                    "type": "address"
                },
                {
                    "indexed": false,
                    "internalType": "address",
                    "name": "nftContract",
                    "type": "address"
                },
                {
                    "indexed": false,
                    "internalType": "uint256",
                    "name": "tokenId",
                    "type": "uint256"
                },
                {
                    "indexed": false,
                    "internalType": "uint256",
                    "name": "price",
                    "type": "uint256"
                }
            ],
            "name": "OrderCreated",
            "type": "event"
        },
        {
            "anonymous": false,
            "inputs": [
                {
                    "indexed": true,
                    "internalType": "uint256",
                    "name": "orderId",
                    "type": "uint256"
                },
                {
                    "indexed": true,
                    "internalType": "address",
                    "name": "buyer",
                    "type": "address"
                },
                {
                    "indexed": true,
                    "internalType": "address",
                    "name": "seller",
                    "type": "address"
                },
                {
                    "indexed": false,
                    "internalType": "uint256",
                    "name": "price",
                    "type": "uint256"
                }
            ],
            "name": "OrderExecuted",
            "type": "event"
        },
        {
            "inputs": [],
            "name": "admin",
            "outputs": [
                {
                    "internalType": "address",
                    "name": "",
                    "type": "address"
                }
            ],
            "stateMutability": "view",
            "type": "function"
        },
        {
            "inputs": [
                {
                    "internalType": "uint256",
                    "name": "orderId",
                    "type": "uint256"
                }
            ],
            "name": "buyNFT",
            "outputs": [],
            "stateMutability": "payable",
            "type": "function"
        },
        {
            "inputs": [
                {
                    "internalType": "uint256",
                    "name": "orderId",
                    "type": "uint256"
                }
            ],
            "name": "cancelOrder",
            "outputs": [],
            "stateMutability": "nonpayable",
            "type": "function"
        },
        {
            "inputs": [
                {
                    "internalType": "address",
                    "name": "nftContract",
                    "type": "address"
                },
                {
                    "internalType": "uint256",
                    "name": "tokenId",
                    "type": "uint256"
                },
                {
                    "internalType": "uint256",
                    "name": "price",
                    "type": "uint256"
                },
                {
                    "internalType": "address",
                    "name": "paymentToken",
                    "type": "address"
                }
            ],
            "name": "createOrder",
            "outputs": [],
            "stateMutability": "nonpayable",
            "type": "function"
        },
        {
            "inputs": [
                {
                    "internalType": "address",
                    "name": "nftContract",
                    "type": "address"
                },
                {
                    "internalType": "uint256",
                    "name": "tokenId",
                    "type": "uint256"
                },
                {
                    "internalType": "uint256",
                    "name": "price",
                    "type": "uint256"
                },
                {
                    "internalType": "address",
                    "name": "paymentToken",
                    "type": "address"
                }
            ],
            "name": "createOrderWithEscrow",
            "outputs": [],
            "stateMutability": "nonpayable",
            "type": "function"
        },
        {
            "inputs": [],
            "name": "nextOrderId",
            "outputs": [
                {
                    "internalType": "uint256",
                    "name": "",
                    "type": "uint256"
                }
            ],
            "stateMutability": "view",
            "type": "function"
        },
        {
            "inputs": [
                {
                    "internalType": "uint256",
                    "name": "",
                    "type": "uint256"
                }
            ],
            "name": "orders",
            "outputs": [
                {
                    "internalType": "uint256",
                    "name": "id",
                    "type": "uint256"
                },
                {
                    "internalType": "address",
                    "name": "seller",
                    "type": "address"
                },
                {
                    "internalType": "address",
                    "name": "nftContract",
                    "type": "address"
                },
                {
                    "internalType": "uint256",
                    "name": "tokenId",
                    "type": "uint256"
                },
                {
                    "internalType": "uint256",
                    "name": "price",
                    "type": "uint256"
                },
                {
                    "internalType": "address",
                    "name": "paymentToken",
                    "type": "address"
                },
                {
                    "internalType": "bool",
                    "name": "isActive",
                    "type": "bool"
                },
                {
                    "internalType": "bool",
                    "name": "isEscrowed",
                    "type": "bool"
                }
            ],
            "stateMutability": "view",
            "type": "function"
        },
        {
            "inputs": [],
            "name": "platformFee",
            "outputs": [
                {
                    "internalType": "uint256",
                    "name": "",
                    "type": "uint256"
                }
            ],
            "stateMutability": "view",
            "type": "function"
        },
        {
            "stateMutability": "payable",
            "type": "receive"
        }
    ],
    "bytecode": "0x608060405260196002553480156013575f5ffd5b5060015f81905580546001600160a01b03191633179055611335806100375f395ff3fe60806040526004361061007c575f3560e01c8063a85c38ef1161004c578063a85c38ef146100f8578063ba84033c146101bf578063e338bf60146101de578063f851a440146101fd575f5ffd5b806326232a2e146100875780632a58b330146100af578063514fcac7146100c457806351ed8288146100e5575f5ffd5b3661008357005b5f5ffd5b348015610092575f5ffd5b5061009c60025481565b6040519081526020015b60405180910390f35b3480156100ba575f5ffd5b5061009c60045481565b3480156100cf575f5ffd5b506100e36100de366004611196565b610234565b005b6100e36100f3366004611196565b6103be565b348015610103575f5ffd5b5061016e610112366004611196565b600360208190525f918252604090912080546001820154600283015493830154600484015460059094015492946001600160a01b039283169490831693919290919081169060ff600160a01b8204811691600160a81b90041688565b604080519889526001600160a01b0397881660208a0152958716958801959095526060870193909352608086019190915290921660a084015290151560c0830152151560e0820152610100016100a6565b3480156101ca575f5ffd5b506100e36101d93660046111c1565b6109fa565b3480156101e9575f5ffd5b506100e36101f83660046111c1565b610d92565b348015610208575f5ffd5b5060015461021c906001600160a01b031681565b6040516001600160a01b0390911681526020016100a6565b61023c61116e565b5f8181526003602052604090206005810154600160a01b900460ff166102a45760405162461bcd60e51b81526020600482015260186024820152771d15d45cb1b2bcd2f41cd2b11cd112dcb6f65cb1f2dcd6d160431b60448201526064015b60405180910390fd5b60018101546001600160a01b031633146102f55760405162461bcd60e51b8152602060048201526012602482015271e697a0e69d83e58f96e6b688e8aea2e58d9560701b604482015260640161029b565b6005810154600160a81b900460ff1615610378576002810154600182015460038301546040516323b872dd60e01b81526001600160a01b03938416936323b872dd9361034a9330939290911691600401611208565b5f604051808303815f87803b158015610361575f5ffd5b505af1158015610373573d5f5f3e3d5ffd5b505050505b60058101805460ff60a01b1916905560405182907f61b9399f2f0f32ca39ce8d7be32caed5ec22fe07a6daba3a467ed479ec606582905f90a2506103bb60015f55565b50565b6103c661116e565b5f8181526003602052604090206005810154600160a01b900460ff166104295760405162461bcd60e51b81526020600482015260186024820152771d15d45cb1b2bcd2f41cd2b11cd112dcb6f65cb1f2dcd6d160431b604482015260640161029b565b60018101546001600160a01b031633036104855760405162461bcd60e51b815260206004820152601960248201527fe4b88de883bde8b4ade4b9b0e887aae5b7b1e79a84204e465400000000000000604482015260640161029b565b600181015460028083015460038401546004850154600586015493546001600160a01b03958616959384169492939192909116905f906103e8906104c99085611240565b6104d3919061125d565b90505f6104e0828561127c565b90506001600160a01b0383166106855783341461053f5760405162461bcd60e51b815260206004820152601d60248201527fe694afe4bb98e79a842045544820e695b0e9878fe4b88de58cb9e9858d000000604482015260640161029b565b5f876001600160a01b0316826040515f6040518083038185875af1925050503d805f8114610588576040519150601f19603f3d011682016040523d82523d5f602084013e61058d565b606091505b50509050806105de5760405162461bcd60e51b815260206004820152601760248201527fe58d96e5aeb62045544820e8bdace8b4a6e5a4b1e8b4a5000000000000000000604482015260640161029b565b6001546040515f916001600160a01b03169085908381818185875af1925050503d805f8114610628576040519150601f19603f3d011682016040523d82523d5f602084013e61062d565b606091505b505090508061067e5760405162461bcd60e51b815260206004820152601b60248201527fe5b9b3e58fb0e6898be7bbade8b4b9e8bdace8b4a6e5a4b1e8b4a50000000000604482015260640161029b565b50506108c1565b604051636eb1769f60e11b8152336004820152306024820152839085906001600160a01b0383169063dd62ed3e90604401602060405180830381865afa1580156106d1573d5f5f3e3d5ffd5b505050506040513d601f19601f820116820180604052508101906106f5919061128f565b10156107435760405162461bcd60e51b815260206004820152601e60248201527fe8afb7e58588e68e88e69d83e5b9b3e58fb0e8bdace7a7bbe4bba3e5b8810000604482015260640161029b565b6040516323b872dd60e01b81526001600160a01b038216906323b872dd906107739033908c908790600401611208565b6020604051808303815f875af115801561078f573d5f5f3e3d5ffd5b505050506040513d601f19601f820116820180604052508101906107b391906112a6565b6107ff5760405162461bcd60e51b815260206004820152601860248201527fe58d96e5aeb6e4bba3e5b881e8bdace8b4a6e5a4b1e8b4a50000000000000000604482015260640161029b565b6001546040516323b872dd60e01b81526001600160a01b03808416926323b872dd9261083392339216908890600401611208565b6020604051808303815f875af115801561084f573d5f5f3e3d5ffd5b505050506040513d601f19601f8201168201806040525081019061087391906112a6565b6108bf5760405162461bcd60e51b815260206004820152601b60248201527fe5b9b3e58fb0e6898be7bbade8b4b9e8bdace8b4a6e5a4b1e8b4a50000000000604482015260640161029b565b505b60058801548690600160a81b900460ff1615610939576040516323b872dd60e01b81526001600160a01b038216906323b872dd9061090790309033908b90600401611208565b5f604051808303815f87803b15801561091e575f5ffd5b505af1158015610930573d5f5f3e3d5ffd5b50505050610997565b6040516323b872dd60e01b81526001600160a01b038216906323b872dd90610969908b9033908b90600401611208565b5f604051808303815f87803b158015610980575f5ffd5b505af1158015610992573d5f5f3e3d5ffd5b505050505b60058901805460ff60a01b191690556040518581526001600160a01b0389169033908c907fb0b59547517996d23102b5895d7c736afed49131f003d0ab6ab27e6843c53bd99060200160405180910390a45050505050505050506103bb60015f55565b610a0261116e565b6040516331a9108f60e11b815260048101849052849033906001600160a01b03831690636352211e90602401602060405180830381865afa158015610a49573d5f5f3e3d5ffd5b505050506040513d601f19601f82011682018060405250810190610a6d91906112cc565b6001600160a01b031614610aba5760405162461bcd60e51b8152602060048201526014602482015273e4b88de698af204e465420e68980e69c89e8808560601b604482015260640161029b565b60405163e985e9c560e01b81523360048201523060248201526001600160a01b0382169063e985e9c590604401602060405180830381865afa158015610b02573d5f5f3e3d5ffd5b505050506040513d601f19601f82011682018060405250810190610b2691906112a6565b80610ba0575060405163020604bf60e21b81526004810185905230906001600160a01b0383169063081812fc90602401602060405180830381865afa158015610b71573d5f5f3e3d5ffd5b505050506040513d601f19601f82011682018060405250810190610b9591906112cc565b6001600160a01b0316145b610bec5760405162461bcd60e51b815260206004820152601c60248201527fe8afb7e58588e68e88e69d83e5b9b3e58fb0e8bdace7a7bb204e465400000000604482015260640161029b565b5f8311610c325760405162461bcd60e51b81526020600482015260146024820152730e4bbb7e6a0bce5bf85e9a1bbe5a4a7e4ba8e20360641b604482015260640161029b565b600480545f9182610c42836112e7565b9091555060408051610100810182528281523360208083018281526001600160a01b038c8116858701908152606086018d8152608087018d81528c841660a08901908152600160c08a018181525f60e08c018181528e825260039a8b9052908d90209b518c559751918b0180549288166001600160a01b0319938416179055945160028b0180549188169190921617905591519588019590955593516004870155925160059095018054935192511515600160a81b0260ff60a81b19931515600160a01b026001600160a81b0319909516969092169590951792909217161790915590519192509082907f5f88d55333195757ca319aa0ac617520059267f8245f2067982a6caaf6916b8190610d79908a908a908a906001600160a01b039390931683526020830191909152604082015260600190565b60405180910390a35050610d8c60015f55565b50505050565b610d9a61116e565b6040516331a9108f60e11b815260048101849052849033906001600160a01b03831690636352211e90602401602060405180830381865afa158015610de1573d5f5f3e3d5ffd5b505050506040513d601f19601f82011682018060405250810190610e0591906112cc565b6001600160a01b031614610e525760405162461bcd60e51b8152602060048201526014602482015273e4b88de698af204e465420e68980e69c89e8808560601b604482015260640161029b565b60405163e985e9c560e01b81523360048201523060248201526001600160a01b0382169063e985e9c590604401602060405180830381865afa158015610e9a573d5f5f3e3d5ffd5b505050506040513d601f19601f82011682018060405250810190610ebe91906112a6565b80610f38575060405163020604bf60e21b81526004810185905230906001600160a01b0383169063081812fc90602401602060405180830381865afa158015610f09573d5f5f3e3d5ffd5b505050506040513d601f19601f82011682018060405250810190610f2d91906112cc565b6001600160a01b0316145b610f845760405162461bcd60e51b815260206004820152601c60248201527fe8afb7e58588e68e88e69d83e5b9b3e58fb0e8bdace7a7bb204e465400000000604482015260640161029b565b5f8311610fca5760405162461bcd60e51b81526020600482015260146024820152730e4bbb7e6a0bce5bf85e9a1bbe5a4a7e4ba8e20360641b604482015260640161029b565b6040516323b872dd60e01b81526001600160a01b038216906323b872dd90610ffa90339030908990600401611208565b5f604051808303815f87803b158015611011575f5ffd5b505af1158015611023573d5f5f3e3d5ffd5b5050600480545f9350915082611038836112e7565b9091555060408051610100810182528281523360208083018281526001600160a01b038c8116858701908152606086018d8152608087018d81528c841660a08901908152600160c08a0181815260e08b018281525f8e815260039a8b90528d90209b518c559751918b0180549288166001600160a01b0319938416179055945160028b0180549188169190921617905591519588019590955593516004870155925160059095018054935192511515600160a81b0260ff60a81b19931515600160a01b026001600160a81b0319909516969092169590951792909217161790915590519192509082907f5f88d55333195757ca319aa0ac617520059267f8245f2067982a6caaf6916b8190610d79908a908a908a906001600160a01b039390931683526020830191909152604082015260600190565b60025f540361119057604051633ee5aeb560e01b815260040160405180910390fd5b60025f55565b5f602082840312156111a6575f5ffd5b5035919050565b6001600160a01b03811681146103bb575f5ffd5b5f5f5f5f608085870312156111d4575f5ffd5b84356111df816111ad565b9350602085013592506040850135915060608501356111fd816111ad565b939692955090935050565b6001600160a01b039384168152919092166020820152604081019190915260600190565b634e487b7160e01b5f52601160045260245ffd5b80820281158282048414176112575761125761122c565b92915050565b5f8261127757634e487b7160e01b5f52601260045260245ffd5b500490565b818103818111156112575761125761122c565b5f6020828403121561129f575f5ffd5b5051919050565b5f602082840312156112b6575f5ffd5b815180151581146112c5575f5ffd5b9392505050565b5f602082840312156112dc575f5ffd5b81516112c5816111ad565b5f600182016112f8576112f861122c565b506001019056fea2646970667358221220181aea58757da88f5e2baea69c55970e58a346a9c11f665b6f2c590b2a143db864736f6c634300081c0033",
    "linkReferences": {},
    "deployedLinkReferences": {},
    "immutableReferences": {},
    "inputSourceName": "project/contracts/NFTMarketPlace.sol",
    "buildInfoId": "solc-0_8_28-1d7184700e27e624f2679a05bf6d7ffbda779b52"
}